{
  "_format": "hh-sol-artifact-1",
  "contractName": "FileRegistry",
  "sourceName": "contracts/FileRegistry.sol",
  "abi": [
    {
      "anonymous": false,
      "inputs": [
        {
          "indexed": true,
          "internalType": "address",
          "name": "owner",
          "type": "address"
        },
        {
          "indexed": false,
          "internalType": "string",
          "name": "cid",
          "type": "string"
        },
        {
          "indexed": false,
          "internalType": "string",
          "name": "fileName",
          "type": "string"
        },
        {
          "indexed": false,
          "internalType": "uint256",
          "name": "timestamp",
          "type": "uint256"
        }
      ],
      "name": "FileUploaded",
      "type": "event"
    },
    {
      "inputs": [
        {
          "internalType": "string",
          "name": "_cid",
          "type": "string"
        },
        {
          "internalType": "string",
          "name": "_fileName",
          "type": "string"
        }
      ],
      "name": "addFile",
      "outputs": [],
      "stateMutability": "nonpayable",
      "type": "function"
    },
    {
      "inputs": [],
      "name": "getFiles",
      "outputs": [
        {
          "components": [
            {
              "internalType": "string",
              "name": "cid",
              "type": "string"
            },
            {
              "internalType": "string",
              "name": "fileName",
              "type": "string"
            },
            {
              "internalType": "uint256",
              "name": "timestamp",
              "type": "uint256"
            }
          ],
          "internalType": "struct FileRegistry.FileData[]",
          "name": "",
          "type": "tuple[]"
        }
      ],
      "stateMutability": "view",
      "type": "function"
    },
    {
      "inputs": [
        {
          "internalType": "address",
          "name": "",
          "type": "address"
        },
        {
          "internalType": "uint256",
          "name": "",
          "type": "uint256"
        }
      ],
      "name": "userFiles",
      "outputs": [
        {
          "internalType": "string",
          "name": "cid",
          "type": "string"
        },
        {
          "internalType": "string",
          "name": "fileName",
          "type": "string"
        },
        {
          "internalType": "uint256",
          "name": "timestamp",
          "type": "uint256"
        }
      ],
      "stateMutability": "view",
      "type": "function"
    }
  ],
  "bytecode": "0x608060405234801561001057600080fd5b50610d09806100206000396000f3fe608060405234801561001057600080fd5b50600436106100415760003560e01c8063248bfc3b146100465780632da96d7314610062578063718f38a614610080575b600080fd5b610060600480360381019061005b9190610642565b6100b2565b005b61006a6101c8565b604051610077919061086b565b60405180910390f35b61009a60048036038101906100959190610917565b610391565b6040516100a9939291906109b0565b60405180910390f35b600060405180606001604052808481526020018381526020014281525090506000803373ffffffffffffffffffffffffffffffffffffffff1673ffffffffffffffffffffffffffffffffffffffff168152602001908152602001600020819080600181540180825580915050600190039060005260206000209060030201600090919091909150600082015181600001908161014e9190610c01565b5060208201518160010190816101649190610c01565b506040820151816002015550503373ffffffffffffffffffffffffffffffffffffffff167fbfefa59b16be4b348ad74254e31f16a631ec47799e24b3cba0ba5df3e9c21cab8484426040516101bb939291906109b0565b60405180910390a2505050565b60606000803373ffffffffffffffffffffffffffffffffffffffff1673ffffffffffffffffffffffffffffffffffffffff168152602001908152602001600020805480602002602001604051908101604052809291908181526020016000905b82821015610388578382906000526020600020906003020160405180606001604052908160008201805461025b90610a24565b80601f016020809104026020016040519081016040528092919081815260200182805461028790610a24565b80156102d45780601f106102a9576101008083540402835291602001916102d4565b820191906000526020600020905b8154815290600101906020018083116102b757829003601f168201915b505050505081526020016001820180546102ed90610a24565b80601f016020809104026020016040519081016040528092919081815260200182805461031990610a24565b80156103665780601f1061033b57610100808354040283529160200191610366565b820191906000526020600020905b81548152906001019060200180831161034957829003601f168201915b5050505050815260200160028201548152505081526020019060010190610228565b50505050905090565b600060205281600052604060002081815481106103ad57600080fd5b9060005260206000209060030201600091509150508060000180546103d190610a24565b80601f01602080910402602001604051908101604052809291908181526020018280546103fd90610a24565b801561044a5780601f1061041f5761010080835404028352916020019161044a565b820191906000526020600020905b81548152906001019060200180831161042d57829003601f168201915b50505050509080600101805461045f90610a24565b80601f016020809104026020016040519081016040528092919081815260200182805461048b90610a24565b80156104d85780601f106104ad576101008083540402835291602001916104d8565b820191906000526020600020905b8154815290600101906020018083116104bb57829003601f168201915b5050505050908060020154905083565b6000604051905090565b600080fd5b600080fd5b600080fd5b600080fd5b6000601f19601f8301169050919050565b7f4e487b7100000000000000000000000000000000000000000000000000000000600052604160045260246000fd5b61054f82610506565b810181811067ffffffffffffffff8211171561056e5761056d610517565b5b80604052505050565b60006105816104e8565b905061058d8282610546565b919050565b600067ffffffffffffffff8211156105ad576105ac610517565b5b6105b682610506565b9050602081019050919050565b82818337600083830152505050565b60006105e56105e084610592565b610577565b90508281526020810184848401111561060157610600610501565b5b61060c8482856105c3565b509392505050565b600082601f830112610629576106286104fc565b5b81356106398482602086016105d2565b91505092915050565b60008060408385031215610659576106586104f2565b5b600083013567ffffffffffffffff811115610677576106766104f7565b5b61068385828601610614565b925050602083013567ffffffffffffffff8111156106a4576106a36104f7565b5b6106b085828601610614565b9150509250929050565b600081519050919050565b600082825260208201905092915050565b6000819050602082019050919050565b600081519050919050565b600082825260208201905092915050565b60005b83811015610720578082015181840152602081019050610705565b60008484015250505050565b6000610737826106e6565b61074181856106f1565b9350610751818560208601610702565b61075a81610506565b840191505092915050565b6000819050919050565b61077881610765565b82525050565b6000606083016000830151848203600086015261079b828261072c565b915050602083015184820360208601526107b5828261072c565b91505060408301516107ca604086018261076f565b508091505092915050565b60006107e1838361077e565b905092915050565b6000602082019050919050565b6000610801826106ba565b61080b81856106c5565b93508360208202850161081d856106d6565b8060005b85811015610859578484038952815161083a85826107d5565b9450610845836107e9565b925060208a01995050600181019050610821565b50829750879550505050505092915050565b6000602082019050818103600083015261088581846107f6565b905092915050565b600073ffffffffffffffffffffffffffffffffffffffff82169050919050565b60006108b88261088d565b9050919050565b6108c8816108ad565b81146108d357600080fd5b50565b6000813590506108e5816108bf565b92915050565b6108f481610765565b81146108ff57600080fd5b50565b600081359050610911816108eb565b92915050565b6000806040838503121561092e5761092d6104f2565b5b600061093c858286016108d6565b925050602061094d85828601610902565b9150509250929050565b600082825260208201905092915050565b6000610973826106e6565b61097d8185610957565b935061098d818560208601610702565b61099681610506565b840191505092915050565b6109aa81610765565b82525050565b600060608201905081810360008301526109ca8186610968565b905081810360208301526109de8185610968565b90506109ed60408301846109a1565b949350505050565b7f4e487b7100000000000000000000000000000000000000000000000000000000600052602260045260246000fd5b60006002820490506001821680610a3c57607f821691505b602082108103610a4f57610a4e6109f5565b5b50919050565b60008190508160005260206000209050919050565b60006020601f8301049050919050565b600082821b905092915050565b600060088302610ab77fffffffffffffffffffffffffffffffffffffffffffffffffffffffffffffffff82610a7a565b610ac18683610a7a565b95508019841693508086168417925050509392505050565b6000819050919050565b6000610afe610af9610af484610765565b610ad9565b610765565b9050919050565b6000819050919050565b610b1883610ae3565b610b2c610b2482610b05565b848454610a87565b825550505050565b600090565b610b41610b34565b610b4c818484610b0f565b505050565b5b81811015610b7057610b65600082610b39565b600181019050610b52565b5050565b601f821115610bb557610b8681610a55565b610b8f84610a6a565b81016020851015610b9e578190505b610bb2610baa85610a6a565b830182610b51565b50505b505050565b600082821c905092915050565b6000610bd860001984600802610bba565b1980831691505092915050565b6000610bf18383610bc7565b9150826002028217905092915050565b610c0a826106e6565b67ffffffffffffffff811115610c2357610c22610517565b5b610c2d8254610a24565b610c38828285610b74565b600060209050601f831160018114610c6b5760008415610c59578287015190505b610c638582610be5565b865550610ccb565b601f198416610c7986610a55565b60005b82811015610ca157848901518255600182019150602085019450602081019050610c7c565b86831015610cbe5784890151610cba601f891682610bc7565b8355505b6001600288020188555050505b50505050505056fea264697066735822122013b1343f8d4c61434f88ded52f60f4c2882ed9970d3a38c48b33ebe1dbff85b164736f6c63430008180033",
  "linkReferences": {},
  "deployedLinkReferences": {}
}