{
  "_format": "hh-sol-artifact-1",
  "contractName": "FileRegistry",
  "sourceName": "contracts/FileRegistry.sol",
  "abi": [
    {
      "inputs": [],
      "stateMutability": "nonpayable",
      "type": "constructor"
    },
    {
      "anonymous": false,
      "inputs": [
        {
          "indexed": true,
          "internalType": "address",
          "name": "owner",
          "type": "address"
        },
        {
          "indexed": false,
          "internalType": "string",
          "name": "cid",
          "type": "string"
        },
        {
          "indexed": false,
          "internalType": "bytes32",
          "name": "docHash",
          "type": "bytes32"
        },
        {
          "indexed": false,
          "internalType": "bool",
          "name": "status",
          "type": "bool"
        }
      ],
      "name": "FileVerified",
      "type": "event"
    },
    {
      "inputs": [
        {
          "internalType": "address",
          "name": "_user",
          "type": "address"
        },
        {
          "internalType": "string",
          "name": "_cid",
          "type": "string"
        },
        {
          "internalType": "string",
          "name": "_fileName",
          "type": "string"
        },
        {
          "internalType": "bytes32",
          "name": "_docHash",
          "type": "bytes32"
        }
      ],
      "name": "addVerifiedFile",
      "outputs": [],
      "stateMutability": "nonpayable",
      "type": "function"
    },
    {
      "inputs": [],
      "name": "admin",
      "outputs": [
        {
          "internalType": "address",
          "name": "",
          "type": "address"
        }
      ],
      "stateMutability": "view",
      "type": "function"
    },
    {
      "inputs": [
        {
          "internalType": "address",
          "name": "_user",
          "type": "address"
        }
      ],
      "name": "getFiles",
      "outputs": [
        {
          "components": [
            {
              "internalType": "string",
              "name": "cid",
              "type": "string"
            },
            {
              "internalType": "string",
              "name": "fileName",
              "type": "string"
            },
            {
              "internalType": "bytes32",
              "name": "docHash",
              "type": "bytes32"
            },
            {
              "internalType": "bool",
              "name": "isVerified",
              "type": "bool"
            },
            {
              "internalType": "uint256",
              "name": "timestamp",
              "type": "uint256"
            }
          ],
          "internalType": "struct FileRegistry.FileData[]",
          "name": "",
          "type": "tuple[]"
        }
      ],
      "stateMutability": "view",
      "type": "function"
    },
    {
      "inputs": [
        {
          "internalType": "address",
          "name": "",
          "type": "address"
        },
        {
          "internalType": "uint256",
          "name": "",
          "type": "uint256"
        }
      ],
      "name": "userFiles",
      "outputs": [
        {
          "internalType": "string",
          "name": "cid",
          "type": "string"
        },
        {
          "internalType": "string",
          "name": "fileName",
          "type": "string"
        },
        {
          "internalType": "bytes32",
          "name": "docHash",
          "type": "bytes32"
        },
        {
          "internalType": "bool",
          "name": "isVerified",
          "type": "bool"
        },
        {
          "internalType": "uint256",
          "name": "timestamp",
          "type": "uint256"
        }
      ],
      "stateMutability": "view",
      "type": "function"
    }
  ],
  "bytecode": "0x608060405234801561001057600080fd5b50336000806101000a81548173ffffffffffffffffffffffffffffffffffffffff021916908373ffffffffffffffffffffffffffffffffffffffff160217905550611084806100606000396000f3fe608060405234801561001057600080fd5b506004361061004c5760003560e01c8063433bf37b14610051578063718f38a6146100815780639c598ca6146100b5578063f851a440146100d1575b600080fd5b61006b600480360381019061006691906106c7565b6100ef565b6040516100789190610910565b60405180910390f35b61009b6004803603810190610096919061095e565b6102e0565b6040516100ac959493929190610a15565b60405180910390f35b6100cf60048036038101906100ca9190610bd7565b610450565b005b6100d9610631565b6040516100e69190610c85565b60405180910390f35b6060600160008373ffffffffffffffffffffffffffffffffffffffff1673ffffffffffffffffffffffffffffffffffffffff168152602001908152602001600020805480602002602001604051908101604052809291908181526020016000905b828210156102d557838290600052602060002090600502016040518060a001604052908160008201805461018390610ccf565b80601f01602080910402602001604051908101604052809291908181526020018280546101af90610ccf565b80156101fc5780601f106101d1576101008083540402835291602001916101fc565b820191906000526020600020905b8154815290600101906020018083116101df57829003601f168201915b5050505050815260200160018201805461021590610ccf565b80601f016020809104026020016040519081016040528092919081815260200182805461024190610ccf565b801561028e5780601f106102635761010080835404028352916020019161028e565b820191906000526020600020905b81548152906001019060200180831161027157829003601f168201915b50505050508152602001600282015481526020016003820160009054906101000a900460ff1615151515815260200160048201548152505081526020019060010190610150565b505050509050919050565b600160205281600052604060002081815481106102fc57600080fd5b90600052602060002090600502016000915091505080600001805461032090610ccf565b80601f016020809104026020016040519081016040528092919081815260200182805461034c90610ccf565b80156103995780601f1061036e57610100808354040283529160200191610399565b820191906000526020600020905b81548152906001019060200180831161037c57829003601f168201915b5050505050908060010180546103ae90610ccf565b80601f01602080910402602001604051908101604052809291908181526020018280546103da90610ccf565b80156104275780601f106103fc57610100808354040283529160200191610427565b820191906000526020600020905b81548152906001019060200180831161040a57829003601f168201915b5050505050908060020154908060030160009054906101000a900460ff16908060040154905085565b60008054906101000a900473ffffffffffffffffffffffffffffffffffffffff1673ffffffffffffffffffffffffffffffffffffffff163373ffffffffffffffffffffffffffffffffffffffff16146104de576040517f08c379a00000000000000000000000000000000000000000000000000000000081526004016104d590610d72565b60405180910390fd5b60006040518060a00160405280858152602001848152602001838152602001600115158152602001428152509050600160008673ffffffffffffffffffffffffffffffffffffffff1673ffffffffffffffffffffffffffffffffffffffff168152602001908152602001600020819080600181540180825580915050600190039060005260206000209060050201600090919091909150600082015181600001908161058a9190610f3e565b5060208201518160010190816105a09190610f3e565b506040820151816002015560608201518160030160006101000a81548160ff0219169083151502179055506080820151816004015550508473ffffffffffffffffffffffffffffffffffffffff167fbecc15c3fccb4a4bcf940866e07467e8ee16c0a5aab34539f7f4c6ba2efbb4d78584600160405161062293929190611010565b60405180910390a25050505050565b60008054906101000a900473ffffffffffffffffffffffffffffffffffffffff1681565b6000604051905090565b600080fd5b600080fd5b600073ffffffffffffffffffffffffffffffffffffffff82169050919050565b600061069482610669565b9050919050565b6106a481610689565b81146106af57600080fd5b50565b6000813590506106c18161069b565b92915050565b6000602082840312156106dd576106dc61065f565b5b60006106eb848285016106b2565b91505092915050565b600081519050919050565b600082825260208201905092915050565b6000819050602082019050919050565b600081519050919050565b600082825260208201905092915050565b60005b8381101561075a57808201518184015260208101905061073f565b60008484015250505050565b6000601f19601f8301169050919050565b600061078282610720565b61078c818561072b565b935061079c81856020860161073c565b6107a581610766565b840191505092915050565b6000819050919050565b6107c3816107b0565b82525050565b60008115159050919050565b6107de816107c9565b82525050565b6000819050919050565b6107f7816107e4565b82525050565b600060a083016000830151848203600086015261081a8282610777565b915050602083015184820360208601526108348282610777565b915050604083015161084960408601826107ba565b50606083015161085c60608601826107d5565b50608083015161086f60808601826107ee565b508091505092915050565b600061088683836107fd565b905092915050565b6000602082019050919050565b60006108a6826106f4565b6108b081856106ff565b9350836020820285016108c285610710565b8060005b858110156108fe57848403895281516108df858261087a565b94506108ea8361088e565b925060208a019950506001810190506108c6565b50829750879550505050505092915050565b6000602082019050818103600083015261092a818461089b565b905092915050565b61093b816107e4565b811461094657600080fd5b50565b60008135905061095881610932565b92915050565b600080604083850312156109755761097461065f565b5b6000610983858286016106b2565b925050602061099485828601610949565b9150509250929050565b600082825260208201905092915050565b60006109ba82610720565b6109c4818561099e565b93506109d481856020860161073c565b6109dd81610766565b840191505092915050565b6109f1816107b0565b82525050565b610a00816107c9565b82525050565b610a0f816107e4565b82525050565b600060a0820190508181036000830152610a2f81886109af565b90508181036020830152610a4381876109af565b9050610a5260408301866109e8565b610a5f60608301856109f7565b610a6c6080830184610a06565b9695505050505050565b600080fd5b600080fd5b7f4e487b7100000000000000000000000000000000000000000000000000000000600052604160045260246000fd5b610ab882610766565b810181811067ffffffffffffffff82111715610ad757610ad6610a80565b5b80604052505050565b6000610aea610655565b9050610af68282610aaf565b919050565b600067ffffffffffffffff821115610b1657610b15610a80565b5b610b1f82610766565b9050602081019050919050565b82818337600083830152505050565b6000610b4e610b4984610afb565b610ae0565b905082815260208101848484011115610b6a57610b69610a7b565b5b610b75848285610b2c565b509392505050565b600082601f830112610b9257610b91610a76565b5b8135610ba2848260208601610b3b565b91505092915050565b610bb4816107b0565b8114610bbf57600080fd5b50565b600081359050610bd181610bab565b92915050565b60008060008060808587031215610bf157610bf061065f565b5b6000610bff878288016106b2565b945050602085013567ffffffffffffffff811115610c2057610c1f610664565b5b610c2c87828801610b7d565b935050604085013567ffffffffffffffff811115610c4d57610c4c610664565b5b610c5987828801610b7d565b9250506060610c6a87828801610bc2565b91505092959194509250565b610c7f81610689565b82525050565b6000602082019050610c9a6000830184610c76565b92915050565b7f4e487b7100000000000000000000000000000000000000000000000000000000600052602260045260246000fd5b60006002820490506001821680610ce757607f821691505b602082108103610cfa57610cf9610ca0565b5b50919050565b7f4f6e6c7920746865204149204261636b656e642063616e20766572696679206960008201527f64656e7469746965730000000000000000000000000000000000000000000000602082015250565b6000610d5c60298361099e565b9150610d6782610d00565b604082019050919050565b60006020820190508181036000830152610d8b81610d4f565b9050919050565b60008190508160005260206000209050919050565b60006020601f8301049050919050565b600082821b905092915050565b600060088302610df47fffffffffffffffffffffffffffffffffffffffffffffffffffffffffffffffff82610db7565b610dfe8683610db7565b95508019841693508086168417925050509392505050565b6000819050919050565b6000610e3b610e36610e31846107e4565b610e16565b6107e4565b9050919050565b6000819050919050565b610e5583610e20565b610e69610e6182610e42565b848454610dc4565b825550505050565b600090565b610e7e610e71565b610e89818484610e4c565b505050565b5b81811015610ead57610ea2600082610e76565b600181019050610e8f565b5050565b601f821115610ef257610ec381610d92565b610ecc84610da7565b81016020851015610edb578190505b610eef610ee785610da7565b830182610e8e565b50505b505050565b600082821c905092915050565b6000610f1560001984600802610ef7565b1980831691505092915050565b6000610f2e8383610f04565b9150826002028217905092915050565b610f4782610720565b67ffffffffffffffff811115610f6057610f5f610a80565b5b610f6a8254610ccf565b610f75828285610eb1565b600060209050601f831160018114610fa85760008415610f96578287015190505b610fa08582610f22565b865550611008565b601f198416610fb686610d92565b60005b82811015610fde57848901518255600182019150602085019450602081019050610fb9565b86831015610ffb5784890151610ff7601f891682610f04565b8355505b6001600288020188555050505b505050505050565b6000606082019050818103600083015261102a81866109af565b905061103960208301856109e8565b61104660408301846109f7565b94935050505056fea264697066735822122077ce9948aa2e3e9c891fd436ab148dcaf5060eea442ba49f19b1681e70d8c17364736f6c63430008180033",
  "linkReferences": {},
  "deployedLinkReferences": {}
}