{"contracts/FileRegistry.sol":{"FileRegistry":{"abi":[{"inputs":[],"stateMutability":"nonpayable","type":"constructor"},{"anonymous":false,"inputs":[{"indexed":true,"internalType":"address","name":"owner","type":"address"},{"indexed":false,"internalType":"string","name":"cid","type":"string"},{"indexed":false,"internalType":"bytes32","name":"docHash","type":"bytes32"},{"indexed":false,"internalType":"bool","name":"status","type":"bool"}],"name":"FileVerified","type":"event"},{"inputs":[{"internalType":"address","name":"_user","type":"address"},{"internalType":"string","name":"_cid","type":"string"},{"internalType":"string","name":"_fileName","type":"string"},{"internalType":"bytes32","name":"_docHash","type":"bytes32"}],"name":"addVerifiedFile","outputs":[],"stateMutability":"nonpayable","type":"function"},{"inputs":[],"name":"admin","outputs":[{"internalType":"address","name":"","type":"address"}],"stateMutability":"view","type":"function"},{"inputs":[{"internalType":"address","name":"_user","type":"address"}],"name":"getFiles","outputs":[{"components":[{"internalType":"string","name":"cid","type":"string"},{"internalType":"string","name":"fileName","type":"string"},{"internalType":"bytes32","name":"docHash","type":"bytes32"},{"internalType":"bool","name":"isVerified","type":"bool"},{"internalType":"uint256","name":"timestamp","type":"uint256"}],"internalType":"struct FileRegistry.FileData[]","name":"","type":"tuple[]"}],"stateMutability":"view","type":"function"},{"inputs":[{"internalType":"address","name":"","type":"address"},{"internalType":"uint256","name":"","type":"uint256"}],"name":"userFiles","outputs":[{"internalType":"string","name":"cid","type":"string"},{"internalType":"string","name":"fileName","type":"string"},{"internalType":"bytes32","name":"docHash","type":"bytes32"},{"internalType":"bool","name":"isVerified","type":"bool"},{"internalType":"uint256","name":"timestamp","type":"uint256"}],"stateMutability":"view","type":"function"}],"evm":{"bytecode":{"linkReferences":{},"object":"608060405234801561001057600080fd5b50336000806101000a81548173ffffffffffffffffffffffffffffffffffffffff021916908373ffffffffffffffffffffffffffffffffffffffff160217905550611084806100606000396000f3fe608060405234801561001057600080fd5b506004361061004c5760003560e01c8063433bf37b14610051578063718f38a6146100815780639c598ca6146100b5578063f851a440146100d1575b600080fd5b61006b600480360381019061006691906106c7565b6100ef565b6040516100789190610910565b60405180910390f35b61009b6004803603810190610096919061095e565b6102e0565b6040516100ac959493929190610a15565b60405180910390f35b6100cf60048036038101906100ca9190610bd7565b610450565b005b6100d9610631565b6040516100e69190610c85565b60405180910390f35b6060600160008373ffffffffffffffffffffffffffffffffffffffff1673ffffffffffffffffffffffffffffffffffffffff168152602001908152602001600020805480602002602001604051908101604052809291908181526020016000905b828210156102d557838290600052602060002090600502016040518060a001604052908160008201805461018390610ccf565b80601f01602080910402602001604051908101604052809291908181526020018280546101af90610ccf565b80156101fc5780601f106101d1576101008083540402835291602001916101fc565b820191906000526020600020905b8154815290600101906020018083116101df57829003601f168201915b5050505050815260200160018201805461021590610ccf565b80601f016020809104026020016040519081016040528092919081815260200182805461024190610ccf565b801561028e5780601f106102635761010080835404028352916020019161028e565b820191906000526020600020905b81548152906001019060200180831161027157829003601f168201915b50505050508152602001600282015481526020016003820160009054906101000a900460ff1615151515815260200160048201548152505081526020019060010190610150565b505050509050919050565b600160205281600052604060002081815481106102fc57600080fd5b90600052602060002090600502016000915091505080600001805461032090610ccf565b80601f016020809104026020016040519081016040528092919081815260200182805461034c90610ccf565b80156103995780601f1061036e57610100808354040283529160200191610399565b820191906000526020600020905b81548152906001019060200180831161037c57829003601f168201915b5050505050908060010180546103ae90610ccf565b80601f01602080910402602001604051908101604052809291908181526020018280546103da90610ccf565b80156104275780601f106103fc57610100808354040283529160200191610427565b820191906000526020600020905b81548152906001019060200180831161040a57829003601f168201915b5050505050908060020154908060030160009054906101000a900460ff16908060040154905085565b60008054906101000a900473ffffffffffffffffffffffffffffffffffffffff1673ffffffffffffffffffffffffffffffffffffffff163373ffffffffffffffffffffffffffffffffffffffff16146104de576040517f08c379a00000000000000000000000000000000000000000000000000000000081526004016104d590610d72565b60405180910390fd5b60006040518060a00160405280858152602001848152602001838152602001600115158152602001428152509050600160008673ffffffffffffffffffffffffffffffffffffffff1673ffffffffffffffffffffffffffffffffffffffff168152602001908152602001600020819080600181540180825580915050600190039060005260206000209060050201600090919091909150600082015181600001908161058a9190610f3e565b5060208201518160010190816105a09190610f3e565b506040820151816002015560608201518160030160006101000a81548160ff0219169083151502179055506080820151816004015550508473ffffffffffffffffffffffffffffffffffffffff167fbecc15c3fccb4a4bcf940866e07467e8ee16c0a5aab34539f7f4c6ba2efbb4d78584600160405161062293929190611010565b60405180910390a25050505050565b60008054906101000a900473ffffffffffffffffffffffffffffffffffffffff1681565b6000604051905090565b600080fd5b600080fd5b600073ffffffffffffffffffffffffffffffffffffffff82169050919050565b600061069482610669565b9050919050565b6106a481610689565b81146106af57600080fd5b50565b6000813590506106c18161069b565b92915050565b6000602082840312156106dd576106dc61065f565b5b60006106eb848285016106b2565b91505092915050565b600081519050919050565b600082825260208201905092915050565b6000819050602082019050919050565b600081519050919050565b600082825260208201905092915050565b60005b8381101561075a57808201518184015260208101905061073f565b60008484015250505050565b6000601f19601f8301169050919050565b600061078282610720565b61078c818561072b565b935061079c81856020860161073c565b6107a581610766565b840191505092915050565b6000819050919050565b6107c3816107b0565b82525050565b60008115159050919050565b6107de816107c9565b82525050565b6000819050919050565b6107f7816107e4565b82525050565b600060a083016000830151848203600086015261081a8282610777565b915050602083015184820360208601526108348282610777565b915050604083015161084960408601826107ba565b50606083015161085c60608601826107d5565b50608083015161086f60808601826107ee565b508091505092915050565b600061088683836107fd565b905092915050565b6000602082019050919050565b60006108a6826106f4565b6108b081856106ff565b9350836020820285016108c285610710565b8060005b858110156108fe57848403895281516108df858261087a565b94506108ea8361088e565b925060208a019950506001810190506108c6565b50829750879550505050505092915050565b6000602082019050818103600083015261092a818461089b565b905092915050565b61093b816107e4565b811461094657600080fd5b50565b60008135905061095881610932565b92915050565b600080604083850312156109755761097461065f565b5b6000610983858286016106b2565b925050602061099485828601610949565b9150509250929050565b600082825260208201905092915050565b60006109ba82610720565b6109c4818561099e565b93506109d481856020860161073c565b6109dd81610766565b840191505092915050565b6109f1816107b0565b82525050565b610a00816107c9565b82525050565b610a0f816107e4565b82525050565b600060a0820190508181036000830152610a2f81886109af565b90508181036020830152610a4381876109af565b9050610a5260408301866109e8565b610a5f60608301856109f7565b610a6c6080830184610a06565b9695505050505050565b600080fd5b600080fd5b7f4e487b7100000000000000000000000000000000000000000000000000000000600052604160045260246000fd5b610ab882610766565b810181811067ffffffffffffffff82111715610ad757610ad6610a80565b5b80604052505050565b6000610aea610655565b9050610af68282610aaf565b919050565b600067ffffffffffffffff821115610b1657610b15610a80565b5b610b1f82610766565b9050602081019050919050565b82818337600083830152505050565b6000610b4e610b4984610afb565b610ae0565b905082815260208101848484011115610b6a57610b69610a7b565b5b610b75848285610b2c565b509392505050565b600082601f830112610b9257610b91610a76565b5b8135610ba2848260208601610b3b565b91505092915050565b610bb4816107b0565b8114610bbf57600080fd5b50565b600081359050610bd181610bab565b92915050565b60008060008060808587031215610bf157610bf061065f565b5b6000610bff878288016106b2565b945050602085013567ffffffffffffffff811115610c2057610c1f610664565b5b610c2c87828801610b7d565b935050604085013567ffffffffffffffff811115610c4d57610c4c610664565b5b610c5987828801610b7d565b9250506060610c6a87828801610bc2565b91505092959194509250565b610c7f81610689565b82525050565b6000602082019050610c9a6000830184610c76565b92915050565b7f4e487b7100000000000000000000000000000000000000000000000000000000600052602260045260246000fd5b60006002820490506001821680610ce757607f821691505b602082108103610cfa57610cf9610ca0565b5b50919050565b7f4f6e6c7920746865204149204261636b656e642063616e20766572696679206960008201527f64656e7469746965730000000000000000000000000000000000000000000000602082015250565b6000610d5c60298361099e565b9150610d6782610d00565b604082019050919050565b60006020820190508181036000830152610d8b81610d4f565b9050919050565b60008190508160005260206000209050919050565b60006020601f8301049050919050565b600082821b905092915050565b600060088302610df47fffffffffffffffffffffffffffffffffffffffffffffffffffffffffffffffff82610db7565b610dfe8683610db7565b95508019841693508086168417925050509392505050565b6000819050919050565b6000610e3b610e36610e31846107e4565b610e16565b6107e4565b9050919050565b6000819050919050565b610e5583610e20565b610e69610e6182610e42565b848454610dc4565b825550505050565b600090565b610e7e610e71565b610e89818484610e4c565b505050565b5b81811015610ead57610ea2600082610e76565b600181019050610e8f565b5050565b601f821115610ef257610ec381610d92565b610ecc84610da7565b81016020851015610edb578190505b610eef610ee785610da7565b830182610e8e565b50505b505050565b600082821c905092915050565b6000610f1560001984600802610ef7565b1980831691505092915050565b6000610f2e8383610f04565b9150826002028217905092915050565b610f4782610720565b67ffffffffffffffff811115610f6057610f5f610a80565b5b610f6a8254610ccf565b610f75828285610eb1565b600060209050601f831160018114610fa85760008415610f96578287015190505b610fa08582610f22565b865550611008565b601f198416610fb686610d92565b60005b82811015610fde57848901518255600182019150602085019450602081019050610fb9565b86831015610ffb5784890151610ff7601f891682610f04565b8355505b6001600288020188555050505b505050505050565b6000606082019050818103600083015261102a81866109af565b905061103960208301856109e8565b61104660408301846109f7565b94935050505056fea264697066735822122077ce9948aa2e3e9c891fd436ab148dcaf5060eea442ba49f19b1681e70d8c17364736f6c63430008180033","opcodes":"PUSH1 0x80 PUSH1 0x40 MSTORE CALLVALUE DUP1 ISZERO PUSH2 0x10 JUMPI PUSH1 0x0 DUP1 REVERT JUMPDEST POP CALLER PUSH1 0x0 DUP1 PUSH2 0x100 EXP DUP2 SLOAD DUP2 PUSH20 0xFFFFFFFFFFFFFFFFFFFFFFFFFFFFFFFFFFFFFFFF MUL NOT AND SWAP1 DUP4 PUSH20 0xFFFFFFFFFFFFFFFFFFFFFFFFFFFFFFFFFFFFFFFF AND MUL OR SWAP1 SSTORE POP PUSH2 0x1084 DUP1 PUSH2 0x60 PUSH1 0x0 CODECOPY PUSH1 0x0 RETURN INVALID PUSH1 0x80 PUSH1 0x40 MSTORE CALLVALUE DUP1 ISZERO PUSH2 0x10 JUMPI PUSH1 0x0 DUP1 REVERT JUMPDEST POP PUSH1 0x4 CALLDATASIZE LT PUSH2 0x4C JUMPI PUSH1 0x0 CALLDATALOAD PUSH1 0xE0 SHR DUP1 PUSH4 0x433BF37B EQ PUSH2 0x51 JUMPI DUP1 PUSH4 0x718F38A6 EQ PUSH2 0x81 JUMPI DUP1 PUSH4 0x9C598CA6 EQ PUSH2 0xB5 JUMPI DUP1 PUSH4 0xF851A440 EQ PUSH2 0xD1 JUMPI JUMPDEST PUSH1 0x0 DUP1 REVERT JUMPDEST PUSH2 0x6B PUSH1 0x4 DUP1 CALLDATASIZE SUB DUP2 ADD SWAP1 PUSH2 0x66 SWAP2 SWAP1 PUSH2 0x6C7 JUMP JUMPDEST PUSH2 0xEF JUMP JUMPDEST PUSH1 0x40 MLOAD PUSH2 0x78 SWAP2 SWAP1 PUSH2 0x910 JUMP JUMPDEST PUSH1 0x40 MLOAD DUP1 SWAP2 SUB SWAP1 RETURN JUMPDEST PUSH2 0x9B PUSH1 0x4 DUP1 CALLDATASIZE SUB DUP2 ADD SWAP1 PUSH2 0x96 SWAP2 SWAP1 PUSH2 0x95E JUMP JUMPDEST PUSH2 0x2E0 JUMP JUMPDEST PUSH1 0x40 MLOAD PUSH2 0xAC SWAP6 SWAP5 SWAP4 SWAP3 SWAP2 SWAP1 PUSH2 0xA15 JUMP JUMPDEST PUSH1 0x40 MLOAD DUP1 SWAP2 SUB SWAP1 RETURN JUMPDEST PUSH2 0xCF PUSH1 0x4 DUP1 CALLDATASIZE SUB DUP2 ADD SWAP1 PUSH2 0xCA SWAP2 SWAP1 PUSH2 0xBD7 JUMP JUMPDEST PUSH2 0x450 JUMP JUMPDEST STOP JUMPDEST PUSH2 0xD9 PUSH2 0x631 JUMP JUMPDEST PUSH1 0x40 MLOAD PUSH2 0xE6 SWAP2 SWAP1 PUSH2 0xC85 JUMP JUMPDEST PUSH1 0x40 MLOAD DUP1 SWAP2 SUB SWAP1 RETURN JUMPDEST PUSH1 0x60 PUSH1 0x1 PUSH1 0x0 DUP4 PUSH20 0xFFFFFFFFFFFFFFFFFFFFFFFFFFFFFFFFFFFFFFFF AND PUSH20 0xFFFFFFFFFFFFFFFFFFFFFFFFFFFFFFFFFFFFFFFF AND DUP2 MSTORE PUSH1 0x20 ADD SWAP1 DUP2 MSTORE PUSH1 0x20 ADD PUSH1 0x0 KECCAK256 DUP1 SLOAD DUP1 PUSH1 0x20 MUL PUSH1 0x20 ADD PUSH1 0x40 MLOAD SWAP1 DUP2 ADD PUSH1 0x40 MSTORE DUP1 SWAP3 SWAP2 SWAP1 DUP2 DUP2 MSTORE PUSH1 0x20 ADD PUSH1 0x0 SWAP1 JUMPDEST DUP3 DUP3 LT ISZERO PUSH2 0x2D5 JUMPI DUP4 DUP3 SWAP1 PUSH1 0x0 MSTORE PUSH1 0x20 PUSH1 0x0 KECCAK256 SWAP1 PUSH1 0x5 MUL ADD PUSH1 0x40 MLOAD DUP1 PUSH1 0xA0 ADD PUSH1 0x40 MSTORE SWAP1 DUP2 PUSH1 0x0 DUP3 ADD DUP1 SLOAD PUSH2 0x183 SWAP1 PUSH2 0xCCF JUMP JUMPDEST DUP1 PUSH1 0x1F ADD PUSH1 0x20 DUP1 SWAP2 DIV MUL PUSH1 0x20 ADD PUSH1 0x40 MLOAD SWAP1 DUP2 ADD PUSH1 0x40 MSTORE DUP1 SWAP3 SWAP2 SWAP1 DUP2 DUP2 MSTORE PUSH1 0x20 ADD DUP3 DUP1 SLOAD PUSH2 0x1AF SWAP1 PUSH2 0xCCF JUMP JUMPDEST DUP1 ISZERO PUSH2 0x1FC JUMPI DUP1 PUSH1 0x1F LT PUSH2 0x1D1 JUMPI PUSH2 0x100 DUP1 DUP4 SLOAD DIV MUL DUP4 MSTORE SWAP2 PUSH1 0x20 ADD SWAP2 PUSH2 0x1FC JUMP JUMPDEST DUP3 ADD SWAP2 SWAP1 PUSH1 0x0 MSTORE PUSH1 0x20 PUSH1 0x0 KECCAK256 SWAP1 JUMPDEST DUP2 SLOAD DUP2 MSTORE SWAP1 PUSH1 0x1 ADD SWAP1 PUSH1 0x20 ADD DUP1 DUP4 GT PUSH2 0x1DF JUMPI DUP3 SWAP1 SUB PUSH1 0x1F AND DUP3 ADD SWAP2 JUMPDEST POP POP POP POP POP DUP2 MSTORE PUSH1 0x20 ADD PUSH1 0x1 DUP3 ADD DUP1 SLOAD PUSH2 0x215 SWAP1 PUSH2 0xCCF JUMP JUMPDEST DUP1 PUSH1 0x1F ADD PUSH1 0x20 DUP1 SWAP2 DIV MUL PUSH1 0x20 ADD PUSH1 0x40 MLOAD SWAP1 DUP2 ADD PUSH1 0x40 MSTORE DUP1 SWAP3 SWAP2 SWAP1 DUP2 DUP2 MSTORE PUSH1 0x20 ADD DUP3 DUP1 SLOAD PUSH2 0x241 SWAP1 PUSH2 0xCCF JUMP JUMPDEST DUP1 ISZERO PUSH2 0x28E JUMPI DUP1 PUSH1 0x1F LT PUSH2 0x263 JUMPI PUSH2 0x100 DUP1 DUP4 SLOAD DIV MUL DUP4 MSTORE SWAP2 PUSH1 0x20 ADD SWAP2 PUSH2 0x28E JUMP JUMPDEST DUP3 ADD SWAP2 SWAP1 PUSH1 0x0 MSTORE PUSH1 0x20 PUSH1 0x0 KECCAK256 SWAP1 JUMPDEST DUP2 SLOAD DUP2 MSTORE SWAP1 PUSH1 0x1 ADD SWAP1 PUSH1 0x20 ADD DUP1 DUP4 GT PUSH2 0x271 JUMPI DUP3 SWAP1 SUB PUSH1 0x1F AND DUP3 ADD SWAP2 JUMPDEST POP POP POP POP POP DUP2 MSTORE PUSH1 0x20 ADD PUSH1 0x2 DUP3 ADD SLOAD DUP2 MSTORE PUSH1 0x20 ADD PUSH1 0x3 DUP3 ADD PUSH1 0x0 SWAP1 SLOAD SWAP1 PUSH2 0x100 EXP SWAP1 DIV PUSH1 0xFF AND ISZERO ISZERO ISZERO ISZERO DUP2 MSTORE PUSH1 0x20 ADD PUSH1 0x4 DUP3 ADD SLOAD DUP2 MSTORE POP POP DUP2 MSTORE PUSH1 0x20 ADD SWAP1 PUSH1 0x1 ADD SWAP1 PUSH2 0x150 JUMP JUMPDEST POP POP POP POP SWAP1 POP SWAP2 SWAP1 POP JUMP JUMPDEST PUSH1 0x1 PUSH1 0x20 MSTORE DUP2 PUSH1 0x0 MSTORE PUSH1 0x40 PUSH1 0x0 KECCAK256 DUP2 DUP2 SLOAD DUP2 LT PUSH2 0x2FC JUMPI PUSH1 0x0 DUP1 REVERT JUMPDEST SWAP1 PUSH1 0x0 MSTORE PUSH1 0x20 PUSH1 0x0 KECCAK256 SWAP1 PUSH1 0x5 MUL ADD PUSH1 0x0 SWAP2 POP SWAP2 POP POP DUP1 PUSH1 0x0 ADD DUP1 SLOAD PUSH2 0x320 SWAP1 PUSH2 0xCCF JUMP JUMPDEST DUP1 PUSH1 0x1F ADD PUSH1 0x20 DUP1 SWAP2 DIV MUL PUSH1 0x20 ADD PUSH1 0x40 MLOAD SWAP1 DUP2 ADD PUSH1 0x40 MSTORE DUP1 SWAP3 SWAP2 SWAP1 DUP2 DUP2 MSTORE PUSH1 0x20 ADD DUP3 DUP1 SLOAD PUSH2 0x34C SWAP1 PUSH2 0xCCF JUMP JUMPDEST DUP1 ISZERO PUSH2 0x399 JUMPI DUP1 PUSH1 0x1F LT PUSH2 0x36E JUMPI PUSH2 0x100 DUP1 DUP4 SLOAD DIV MUL DUP4 MSTORE SWAP2 PUSH1 0x20 ADD SWAP2 PUSH2 0x399 JUMP JUMPDEST DUP3 ADD SWAP2 SWAP1 PUSH1 0x0 MSTORE PUSH1 0x20 PUSH1 0x0 KECCAK256 SWAP1 JUMPDEST DUP2 SLOAD DUP2 MSTORE SWAP1 PUSH1 0x1 ADD SWAP1 PUSH1 0x20 ADD DUP1 DUP4 GT PUSH2 0x37C JUMPI DUP3 SWAP1 SUB PUSH1 0x1F AND DUP3 ADD SWAP2 JUMPDEST POP POP POP POP POP SWAP1 DUP1 PUSH1 0x1 ADD DUP1 SLOAD PUSH2 0x3AE SWAP1 PUSH2 0xCCF JUMP JUMPDEST DUP1 PUSH1 0x1F ADD PUSH1 0x20 DUP1 SWAP2 DIV MUL PUSH1 0x20 ADD PUSH1 0x40 MLOAD SWAP1 DUP2 ADD PUSH1 0x40 MSTORE DUP1 SWAP3 SWAP2 SWAP1 DUP2 DUP2 MSTORE PUSH1 0x20 ADD DUP3 DUP1 SLOAD PUSH2 0x3DA SWAP1 PUSH2 0xCCF JUMP JUMPDEST DUP1 ISZERO PUSH2 0x427 JUMPI DUP1 PUSH1 0x1F LT PUSH2 0x3FC JUMPI PUSH2 0x100 DUP1 DUP4 SLOAD DIV MUL DUP4 MSTORE SWAP2 PUSH1 0x20 ADD SWAP2 PUSH2 0x427 JUMP JUMPDEST DUP3 ADD SWAP2 SWAP1 PUSH1 0x0 MSTORE PUSH1 0x20 PUSH1 0x0 KECCAK256 SWAP1 JUMPDEST DUP2 SLOAD DUP2 MSTORE SWAP1 PUSH1 0x1 ADD SWAP1 PUSH1 0x20 ADD DUP1 DUP4 GT PUSH2 0x40A JUMPI DUP3 SWAP1 SUB PUSH1 0x1F AND DUP3 ADD SWAP2 JUMPDEST POP POP POP POP POP SWAP1 DUP1 PUSH1 0x2 ADD SLOAD SWAP1 DUP1 PUSH1 0x3 ADD PUSH1 0x0 SWAP1 SLOAD SWAP1 PUSH2 0x100 EXP SWAP1 DIV PUSH1 0xFF AND SWAP1 DUP1 PUSH1 0x4 ADD SLOAD SWAP1 POP DUP6 JUMP JUMPDEST PUSH1 0x0 DUP1 SLOAD SWAP1 PUSH2 0x100 EXP SWAP1 DIV PUSH20 0xFFFFFFFFFFFFFFFFFFFFFFFFFFFFFFFFFFFFFFFF AND PUSH20 0xFFFFFFFFFFFFFFFFFFFFFFFFFFFFFFFFFFFFFFFF AND CALLER PUSH20 0xFFFFFFFFFFFFFFFFFFFFFFFFFFFFFFFFFFFFFFFF AND EQ PUSH2 0x4DE JUMPI PUSH1 0x40 MLOAD PUSH32 0x8C379A000000000000000000000000000000000000000000000000000000000 DUP2 MSTORE PUSH1 0x4 ADD PUSH2 0x4D5 SWAP1 PUSH2 0xD72 JUMP JUMPDEST PUSH1 0x40 MLOAD DUP1 SWAP2 SUB SWAP1 REVERT JUMPDEST PUSH1 0x0 PUSH1 0x40 MLOAD DUP1 PUSH1 0xA0 ADD PUSH1 0x40 MSTORE DUP1 DUP6 DUP2 MSTORE PUSH1 0x20 ADD DUP5 DUP2 MSTORE PUSH1 0x20 ADD DUP4 DUP2 MSTORE PUSH1 0x20 ADD PUSH1 0x1 ISZERO ISZERO DUP2 MSTORE PUSH1 0x20 ADD TIMESTAMP DUP2 MSTORE POP SWAP1 POP PUSH1 0x1 PUSH1 0x0 DUP7 PUSH20 0xFFFFFFFFFFFFFFFFFFFFFFFFFFFFFFFFFFFFFFFF AND PUSH20 0xFFFFFFFFFFFFFFFFFFFFFFFFFFFFFFFFFFFFFFFF AND DUP2 MSTORE PUSH1 0x20 ADD SWAP1 DUP2 MSTORE PUSH1 0x20 ADD PUSH1 0x0 KECCAK256 DUP2 SWAP1 DUP1 PUSH1 0x1 DUP2 SLOAD ADD DUP1 DUP3 SSTORE DUP1 SWAP2 POP POP PUSH1 0x1 SWAP1 SUB SWAP1 PUSH1 0x0 MSTORE PUSH1 0x20 PUSH1 0x0 KECCAK256 SWAP1 PUSH1 0x5 MUL ADD PUSH1 0x0 SWAP1 SWAP2 SWAP1 SWAP2 SWAP1 SWAP2 POP PUSH1 0x0 DUP3 ADD MLOAD DUP2 PUSH1 0x0 ADD SWAP1 DUP2 PUSH2 0x58A SWAP2 SWAP1 PUSH2 0xF3E JUMP JUMPDEST POP PUSH1 0x20 DUP3 ADD MLOAD DUP2 PUSH1 0x1 ADD SWAP1 DUP2 PUSH2 0x5A0 SWAP2 SWAP1 PUSH2 0xF3E JUMP JUMPDEST POP PUSH1 0x40 DUP3 ADD MLOAD DUP2 PUSH1 0x2 ADD SSTORE PUSH1 0x60 DUP3 ADD MLOAD DUP2 PUSH1 0x3 ADD PUSH1 0x0 PUSH2 0x100 EXP DUP2 SLOAD DUP2 PUSH1 0xFF MUL NOT AND SWAP1 DUP4 ISZERO ISZERO MUL OR SWAP1 SSTORE POP PUSH1 0x80 DUP3 ADD MLOAD DUP2 PUSH1 0x4 ADD SSTORE POP POP DUP5 PUSH20 0xFFFFFFFFFFFFFFFFFFFFFFFFFFFFFFFFFFFFFFFF AND PUSH32 0xBECC15C3FCCB4A4BCF940866E07467E8EE16C0A5AAB34539F7F4C6BA2EFBB4D7 DUP6 DUP5 PUSH1 0x1 PUSH1 0x40 MLOAD PUSH2 0x622 SWAP4 SWAP3 SWAP2 SWAP1 PUSH2 0x1010 JUMP JUMPDEST PUSH1 0x40 MLOAD DUP1 SWAP2 SUB SWAP1 LOG2 POP POP POP POP POP JUMP JUMPDEST PUSH1 0x0 DUP1 SLOAD SWAP1 PUSH2 0x100 EXP SWAP1 DIV PUSH20 0xFFFFFFFFFFFFFFFFFFFFFFFFFFFFFFFFFFFFFFFF AND DUP2 JUMP JUMPDEST PUSH1 0x0 PUSH1 0x40 MLOAD SWAP1 POP SWAP1 JUMP JUMPDEST PUSH1 0x0 DUP1 REVERT JUMPDEST PUSH1 0x0 DUP1 REVERT JUMPDEST PUSH1 0x0 PUSH20 0xFFFFFFFFFFFFFFFFFFFFFFFFFFFFFFFFFFFFFFFF DUP3 AND SWAP1 POP SWAP2 SWAP1 POP JUMP JUMPDEST PUSH1 0x0 PUSH2 0x694 DUP3 PUSH2 0x669 JUMP JUMPDEST SWAP1 POP SWAP2 SWAP1 POP JUMP JUMPDEST PUSH2 0x6A4 DUP2 PUSH2 0x689 JUMP JUMPDEST DUP2 EQ PUSH2 0x6AF JUMPI PUSH1 0x0 DUP1 REVERT JUMPDEST POP JUMP JUMPDEST PUSH1 0x0 DUP2 CALLDATALOAD SWAP1 POP PUSH2 0x6C1 DUP2 PUSH2 0x69B JUMP JUMPDEST SWAP3 SWAP2 POP POP JUMP JUMPDEST PUSH1 0x0 PUSH1 0x20 DUP3 DUP5 SUB SLT ISZERO PUSH2 0x6DD JUMPI PUSH2 0x6DC PUSH2 0x65F JUMP JUMPDEST JUMPDEST PUSH1 0x0 PUSH2 0x6EB DUP5 DUP3 DUP6 ADD PUSH2 0x6B2 JUMP JUMPDEST SWAP2 POP POP SWAP3 SWAP2 POP POP JUMP JUMPDEST PUSH1 0x0 DUP2 MLOAD SWAP1 POP SWAP2 SWAP1 POP JUMP JUMPDEST PUSH1 0x0 DUP3 DUP3 MSTORE PUSH1 0x20 DUP3 ADD SWAP1 POP SWAP3 SWAP2 POP POP JUMP JUMPDEST PUSH1 0x0 DUP2 SWAP1 POP PUSH1 0x20 DUP3 ADD SWAP1 POP SWAP2 SWAP1 POP JUMP JUMPDEST PUSH1 0x0 DUP2 MLOAD SWAP1 POP SWAP2 SWAP1 POP JUMP JUMPDEST PUSH1 0x0 DUP3 DUP3 MSTORE PUSH1 0x20 DUP3 ADD SWAP1 POP SWAP3 SWAP2 POP POP JUMP JUMPDEST PUSH1 0x0 JUMPDEST DUP4 DUP2 LT ISZERO PUSH2 0x75A JUMPI DUP1 DUP3 ADD MLOAD DUP2 DUP5 ADD MSTORE PUSH1 0x20 DUP2 ADD SWAP1 POP PUSH2 0x73F JUMP JUMPDEST PUSH1 0x0 DUP5 DUP5 ADD MSTORE POP POP POP POP JUMP JUMPDEST PUSH1 0x0 PUSH1 0x1F NOT PUSH1 0x1F DUP4 ADD AND SWAP1 POP SWAP2 SWAP1 POP JUMP JUMPDEST PUSH1 0x0 PUSH2 0x782 DUP3 PUSH2 0x720 JUMP JUMPDEST PUSH2 0x78C DUP2 DUP6 PUSH2 0x72B JUMP JUMPDEST SWAP4 POP PUSH2 0x79C DUP2 DUP6 PUSH1 0x20 DUP7 ADD PUSH2 0x73C JUMP JUMPDEST PUSH2 0x7A5 DUP2 PUSH2 0x766 JUMP JUMPDEST DUP5 ADD SWAP2 POP POP SWAP3 SWAP2 POP POP JUMP JUMPDEST PUSH1 0x0 DUP2 SWAP1 POP SWAP2 SWAP1 POP JUMP JUMPDEST PUSH2 0x7C3 DUP2 PUSH2 0x7B0 JUMP JUMPDEST DUP3 MSTORE POP POP JUMP JUMPDEST PUSH1 0x0 DUP2 ISZERO ISZERO SWAP1 POP SWAP2 SWAP1 POP JUMP JUMPDEST PUSH2 0x7DE DUP2 PUSH2 0x7C9 JUMP JUMPDEST DUP3 MSTORE POP POP JUMP JUMPDEST PUSH1 0x0 DUP2 SWAP1 POP SWAP2 SWAP1 POP JUMP JUMPDEST PUSH2 0x7F7 DUP2 PUSH2 0x7E4 JUMP JUMPDEST DUP3 MSTORE POP POP JUMP JUMPDEST PUSH1 0x0 PUSH1 0xA0 DUP4 ADD PUSH1 0x0 DUP4 ADD MLOAD DUP5 DUP3 SUB PUSH1 0x0 DUP7 ADD MSTORE PUSH2 0x81A DUP3 DUP3 PUSH2 0x777 JUMP JUMPDEST SWAP2 POP POP PUSH1 0x20 DUP4 ADD MLOAD DUP5 DUP3 SUB PUSH1 0x20 DUP7 ADD MSTORE PUSH2 0x834 DUP3 DUP3 PUSH2 0x777 JUMP JUMPDEST SWAP2 POP POP PUSH1 0x40 DUP4 ADD MLOAD PUSH2 0x849 PUSH1 0x40 DUP7 ADD DUP3 PUSH2 0x7BA JUMP JUMPDEST POP PUSH1 0x60 DUP4 ADD MLOAD PUSH2 0x85C PUSH1 0x60 DUP7 ADD DUP3 PUSH2 0x7D5 JUMP JUMPDEST POP PUSH1 0x80 DUP4 ADD MLOAD PUSH2 0x86F PUSH1 0x80 DUP7 ADD DUP3 PUSH2 0x7EE JUMP JUMPDEST POP DUP1 SWAP2 POP POP SWAP3 SWAP2 POP POP JUMP JUMPDEST PUSH1 0x0 PUSH2 0x886 DUP4 DUP4 PUSH2 0x7FD JUMP JUMPDEST SWAP1 POP SWAP3 SWAP2 POP POP JUMP JUMPDEST PUSH1 0x0 PUSH1 0x20 DUP3 ADD SWAP1 POP SWAP2 SWAP1 POP JUMP JUMPDEST PUSH1 0x0 PUSH2 0x8A6 DUP3 PUSH2 0x6F4 JUMP JUMPDEST PUSH2 0x8B0 DUP2 DUP6 PUSH2 0x6FF JUMP JUMPDEST SWAP4 POP DUP4 PUSH1 0x20 DUP3 MUL DUP6 ADD PUSH2 0x8C2 DUP6 PUSH2 0x710 JUMP JUMPDEST DUP1 PUSH1 0x0 JUMPDEST DUP6 DUP2 LT ISZERO PUSH2 0x8FE JUMPI DUP5 DUP5 SUB DUP10 MSTORE DUP2 MLOAD PUSH2 0x8DF DUP6 DUP3 PUSH2 0x87A JUMP JUMPDEST SWAP5 POP PUSH2 0x8EA DUP4 PUSH2 0x88E JUMP JUMPDEST SWAP3 POP PUSH1 0x20 DUP11 ADD SWAP10 POP POP PUSH1 0x1 DUP2 ADD SWAP1 POP PUSH2 0x8C6 JUMP JUMPDEST POP DUP3 SWAP8 POP DUP8 SWAP6 POP POP POP POP POP POP SWAP3 SWAP2 POP POP JUMP JUMPDEST PUSH1 0x0 PUSH1 0x20 DUP3 ADD SWAP1 POP DUP2 DUP2 SUB PUSH1 0x0 DUP4 ADD MSTORE PUSH2 0x92A DUP2 DUP5 PUSH2 0x89B JUMP JUMPDEST SWAP1 POP SWAP3 SWAP2 POP POP JUMP JUMPDEST PUSH2 0x93B DUP2 PUSH2 0x7E4 JUMP JUMPDEST DUP2 EQ PUSH2 0x946 JUMPI PUSH1 0x0 DUP1 REVERT JUMPDEST POP JUMP JUMPDEST PUSH1 0x0 DUP2 CALLDATALOAD SWAP1 POP PUSH2 0x958 DUP2 PUSH2 0x932 JUMP JUMPDEST SWAP3 SWAP2 POP POP JUMP JUMPDEST PUSH1 0x0 DUP1 PUSH1 0x40 DUP4 DUP6 SUB SLT ISZERO PUSH2 0x975 JUMPI PUSH2 0x974 PUSH2 0x65F JUMP JUMPDEST JUMPDEST PUSH1 0x0 PUSH2 0x983 DUP6 DUP3 DUP7 ADD PUSH2 0x6B2 JUMP JUMPDEST SWAP3 POP POP PUSH1 0x20 PUSH2 0x994 DUP6 DUP3 DUP7 ADD PUSH2 0x949 JUMP JUMPDEST SWAP2 POP POP SWAP3 POP SWAP3 SWAP1 POP JUMP JUMPDEST PUSH1 0x0 DUP3 DUP3 MSTORE PUSH1 0x20 DUP3 ADD SWAP1 POP SWAP3 SWAP2 POP POP JUMP JUMPDEST PUSH1 0x0 PUSH2 0x9BA DUP3 PUSH2 0x720 JUMP JUMPDEST PUSH2 0x9C4 DUP2 DUP6 PUSH2 0x99E JUMP JUMPDEST SWAP4 POP PUSH2 0x9D4 DUP2 DUP6 PUSH1 0x20 DUP7 ADD PUSH2 0x73C JUMP JUMPDEST PUSH2 0x9DD DUP2 PUSH2 0x766 JUMP JUMPDEST DUP5 ADD SWAP2 POP POP SWAP3 SWAP2 POP POP JUMP JUMPDEST PUSH2 0x9F1 DUP2 PUSH2 0x7B0 JUMP JUMPDEST DUP3 MSTORE POP POP JUMP JUMPDEST PUSH2 0xA00 DUP2 PUSH2 0x7C9 JUMP JUMPDEST DUP3 MSTORE POP POP JUMP JUMPDEST PUSH2 0xA0F DUP2 PUSH2 0x7E4 JUMP JUMPDEST DUP3 MSTORE POP POP JUMP JUMPDEST PUSH1 0x0 PUSH1 0xA0 DUP3 ADD SWAP1 POP DUP2 DUP2 SUB PUSH1 0x0 DUP4 ADD MSTORE PUSH2 0xA2F DUP2 DUP9 PUSH2 0x9AF JUMP JUMPDEST SWAP1 POP DUP2 DUP2 SUB PUSH1 0x20 DUP4 ADD MSTORE PUSH2 0xA43 DUP2 DUP8 PUSH2 0x9AF JUMP JUMPDEST SWAP1 POP PUSH2 0xA52 PUSH1 0x40 DUP4 ADD DUP7 PUSH2 0x9E8 JUMP JUMPDEST PUSH2 0xA5F PUSH1 0x60 DUP4 ADD DUP6 PUSH2 0x9F7 JUMP JUMPDEST PUSH2 0xA6C PUSH1 0x80 DUP4 ADD DUP5 PUSH2 0xA06 JUMP JUMPDEST SWAP7 SWAP6 POP POP POP POP POP POP JUMP JUMPDEST PUSH1 0x0 DUP1 REVERT JUMPDEST PUSH1 0x0 DUP1 REVERT JUMPDEST PUSH32 0x4E487B7100000000000000000000000000000000000000000000000000000000 PUSH1 0x0 MSTORE PUSH1 0x41 PUSH1 0x4 MSTORE PUSH1 0x24 PUSH1 0x0 REVERT JUMPDEST PUSH2 0xAB8 DUP3 PUSH2 0x766 JUMP JUMPDEST DUP2 ADD DUP2 DUP2 LT PUSH8 0xFFFFFFFFFFFFFFFF DUP3 GT OR ISZERO PUSH2 0xAD7 JUMPI PUSH2 0xAD6 PUSH2 0xA80 JUMP JUMPDEST JUMPDEST DUP1 PUSH1 0x40 MSTORE POP POP POP JUMP JUMPDEST PUSH1 0x0 PUSH2 0xAEA PUSH2 0x655 JUMP JUMPDEST SWAP1 POP PUSH2 0xAF6 DUP3 DUP3 PUSH2 0xAAF JUMP JUMPDEST SWAP2 SWAP1 POP JUMP JUMPDEST PUSH1 0x0 PUSH8 0xFFFFFFFFFFFFFFFF DUP3 GT ISZERO PUSH2 0xB16 JUMPI PUSH2 0xB15 PUSH2 0xA80 JUMP JUMPDEST JUMPDEST PUSH2 0xB1F DUP3 PUSH2 0x766 JUMP JUMPDEST SWAP1 POP PUSH1 0x20 DUP2 ADD SWAP1 POP SWAP2 SWAP1 POP JUMP JUMPDEST DUP3 DUP2 DUP4 CALLDATACOPY PUSH1 0x0 DUP4 DUP4 ADD MSTORE POP POP POP JUMP JUMPDEST PUSH1 0x0 PUSH2 0xB4E PUSH2 0xB49 DUP5 PUSH2 0xAFB JUMP JUMPDEST PUSH2 0xAE0 JUMP JUMPDEST SWAP1 POP DUP3 DUP2 MSTORE PUSH1 0x20 DUP2 ADD DUP5 DUP5 DUP5 ADD GT ISZERO PUSH2 0xB6A JUMPI PUSH2 0xB69 PUSH2 0xA7B JUMP JUMPDEST JUMPDEST PUSH2 0xB75 DUP5 DUP3 DUP6 PUSH2 0xB2C JUMP JUMPDEST POP SWAP4 SWAP3 POP POP POP JUMP JUMPDEST PUSH1 0x0 DUP3 PUSH1 0x1F DUP4 ADD SLT PUSH2 0xB92 JUMPI PUSH2 0xB91 PUSH2 0xA76 JUMP JUMPDEST JUMPDEST DUP2 CALLDATALOAD PUSH2 0xBA2 DUP5 DUP3 PUSH1 0x20 DUP7 ADD PUSH2 0xB3B JUMP JUMPDEST SWAP2 POP POP SWAP3 SWAP2 POP POP JUMP JUMPDEST PUSH2 0xBB4 DUP2 PUSH2 0x7B0 JUMP JUMPDEST DUP2 EQ PUSH2 0xBBF JUMPI PUSH1 0x0 DUP1 REVERT JUMPDEST POP JUMP JUMPDEST PUSH1 0x0 DUP2 CALLDATALOAD SWAP1 POP PUSH2 0xBD1 DUP2 PUSH2 0xBAB JUMP JUMPDEST SWAP3 SWAP2 POP POP JUMP JUMPDEST PUSH1 0x0 DUP1 PUSH1 0x0 DUP1 PUSH1 0x80 DUP6 DUP8 SUB SLT ISZERO PUSH2 0xBF1 JUMPI PUSH2 0xBF0 PUSH2 0x65F JUMP JUMPDEST JUMPDEST PUSH1 0x0 PUSH2 0xBFF DUP8 DUP3 DUP9 ADD PUSH2 0x6B2 JUMP JUMPDEST SWAP5 POP POP PUSH1 0x20 DUP6 ADD CALLDATALOAD PUSH8 0xFFFFFFFFFFFFFFFF DUP2 GT ISZERO PUSH2 0xC20 JUMPI PUSH2 0xC1F PUSH2 0x664 JUMP JUMPDEST JUMPDEST PUSH2 0xC2C DUP8 DUP3 DUP9 ADD PUSH2 0xB7D JUMP JUMPDEST SWAP4 POP POP PUSH1 0x40 DUP6 ADD CALLDATALOAD PUSH8 0xFFFFFFFFFFFFFFFF DUP2 GT ISZERO PUSH2 0xC4D JUMPI PUSH2 0xC4C PUSH2 0x664 JUMP JUMPDEST JUMPDEST PUSH2 0xC59 DUP8 DUP3 DUP9 ADD PUSH2 0xB7D JUMP JUMPDEST SWAP3 POP POP PUSH1 0x60 PUSH2 0xC6A DUP8 DUP3 DUP9 ADD PUSH2 0xBC2 JUMP JUMPDEST SWAP2 POP POP SWAP3 SWAP6 SWAP2 SWAP5 POP SWAP3 POP JUMP JUMPDEST PUSH2 0xC7F DUP2 PUSH2 0x689 JUMP JUMPDEST DUP3 MSTORE POP POP JUMP JUMPDEST PUSH1 0x0 PUSH1 0x20 DUP3 ADD SWAP1 POP PUSH2 0xC9A PUSH1 0x0 DUP4 ADD DUP5 PUSH2 0xC76 JUMP JUMPDEST SWAP3 SWAP2 POP POP JUMP JUMPDEST PUSH32 0x4E487B7100000000000000000000000000000000000000000000000000000000 PUSH1 0x0 MSTORE PUSH1 0x22 PUSH1 0x4 MSTORE PUSH1 0x24 PUSH1 0x0 REVERT JUMPDEST PUSH1 0x0 PUSH1 0x2 DUP3 DIV SWAP1 POP PUSH1 0x1 DUP3 AND DUP1 PUSH2 0xCE7 JUMPI PUSH1 0x7F DUP3 AND SWAP2 POP JUMPDEST PUSH1 0x20 DUP3 LT DUP2 SUB PUSH2 0xCFA JUMPI PUSH2 0xCF9 PUSH2 0xCA0 JUMP JUMPDEST JUMPDEST POP SWAP2 SWAP1 POP JUMP JUMPDEST PUSH32 0x4F6E6C7920746865204149204261636B656E642063616E207665726966792069 PUSH1 0x0 DUP3 ADD MSTORE PUSH32 0x64656E7469746965730000000000000000000000000000000000000000000000 PUSH1 0x20 DUP3 ADD MSTORE POP JUMP JUMPDEST PUSH1 0x0 PUSH2 0xD5C PUSH1 0x29 DUP4 PUSH2 0x99E JUMP JUMPDEST SWAP2 POP PUSH2 0xD67 DUP3 PUSH2 0xD00 JUMP JUMPDEST PUSH1 0x40 DUP3 ADD SWAP1 POP SWAP2 SWAP1 POP JUMP JUMPDEST PUSH1 0x0 PUSH1 0x20 DUP3 ADD SWAP1 POP DUP2 DUP2 SUB PUSH1 0x0 DUP4 ADD MSTORE PUSH2 0xD8B DUP2 PUSH2 0xD4F JUMP JUMPDEST SWAP1 POP SWAP2 SWAP1 POP JUMP JUMPDEST PUSH1 0x0 DUP2 SWAP1 POP DUP2 PUSH1 0x0 MSTORE PUSH1 0x20 PUSH1 0x0 KECCAK256 SWAP1 POP SWAP2 SWAP1 POP JUMP JUMPDEST PUSH1 0x0 PUSH1 0x20 PUSH1 0x1F DUP4 ADD DIV SWAP1 POP SWAP2 SWAP1 POP JUMP JUMPDEST PUSH1 0x0 DUP3 DUP3 SHL SWAP1 POP SWAP3 SWAP2 POP POP JUMP JUMPDEST PUSH1 0x0 PUSH1 0x8 DUP4 MUL PUSH2 0xDF4 PUSH32 0xFFFFFFFFFFFFFFFFFFFFFFFFFFFFFFFFFFFFFFFFFFFFFFFFFFFFFFFFFFFFFFFF DUP3 PUSH2 0xDB7 JUMP JUMPDEST PUSH2 0xDFE DUP7 DUP4 PUSH2 0xDB7 JUMP JUMPDEST SWAP6 POP DUP1 NOT DUP5 AND SWAP4 POP DUP1 DUP7 AND DUP5 OR SWAP3 POP POP POP SWAP4 SWAP3 POP POP POP JUMP JUMPDEST PUSH1 0x0 DUP2 SWAP1 POP SWAP2 SWAP1 POP JUMP JUMPDEST PUSH1 0x0 PUSH2 0xE3B PUSH2 0xE36 PUSH2 0xE31 DUP5 PUSH2 0x7E4 JUMP JUMPDEST PUSH2 0xE16 JUMP JUMPDEST PUSH2 0x7E4 JUMP JUMPDEST SWAP1 POP SWAP2 SWAP1 POP JUMP JUMPDEST PUSH1 0x0 DUP2 SWAP1 POP SWAP2 SWAP1 POP JUMP JUMPDEST PUSH2 0xE55 DUP4 PUSH2 0xE20 JUMP JUMPDEST PUSH2 0xE69 PUSH2 0xE61 DUP3 PUSH2 0xE42 JUMP JUMPDEST DUP5 DUP5 SLOAD PUSH2 0xDC4 JUMP JUMPDEST DUP3 SSTORE POP POP POP POP JUMP JUMPDEST PUSH1 0x0 SWAP1 JUMP JUMPDEST PUSH2 0xE7E PUSH2 0xE71 JUMP JUMPDEST PUSH2 0xE89 DUP2 DUP5 DUP5 PUSH2 0xE4C JUMP JUMPDEST POP POP POP JUMP JUMPDEST JUMPDEST DUP2 DUP2 LT ISZERO PUSH2 0xEAD JUMPI PUSH2 0xEA2 PUSH1 0x0 DUP3 PUSH2 0xE76 JUMP JUMPDEST PUSH1 0x1 DUP2 ADD SWAP1 POP PUSH2 0xE8F JUMP JUMPDEST POP POP JUMP JUMPDEST PUSH1 0x1F DUP3 GT ISZERO PUSH2 0xEF2 JUMPI PUSH2 0xEC3 DUP2 PUSH2 0xD92 JUMP JUMPDEST PUSH2 0xECC DUP5 PUSH2 0xDA7 JUMP JUMPDEST DUP2 ADD PUSH1 0x20 DUP6 LT ISZERO PUSH2 0xEDB JUMPI DUP2 SWAP1 POP JUMPDEST PUSH2 0xEEF PUSH2 0xEE7 DUP6 PUSH2 0xDA7 JUMP JUMPDEST DUP4 ADD DUP3 PUSH2 0xE8E JUMP JUMPDEST POP POP JUMPDEST POP POP POP JUMP JUMPDEST PUSH1 0x0 DUP3 DUP3 SHR SWAP1 POP SWAP3 SWAP2 POP POP JUMP JUMPDEST PUSH1 0x0 PUSH2 0xF15 PUSH1 0x0 NOT DUP5 PUSH1 0x8 MUL PUSH2 0xEF7 JUMP JUMPDEST NOT DUP1 DUP4 AND SWAP2 POP POP SWAP3 SWAP2 POP POP JUMP JUMPDEST PUSH1 0x0 PUSH2 0xF2E DUP4 DUP4 PUSH2 0xF04 JUMP JUMPDEST SWAP2 POP DUP3 PUSH1 0x2 MUL DUP3 OR SWAP1 POP SWAP3 SWAP2 POP POP JUMP JUMPDEST PUSH2 0xF47 DUP3 PUSH2 0x720 JUMP JUMPDEST PUSH8 0xFFFFFFFFFFFFFFFF DUP2 GT ISZERO PUSH2 0xF60 JUMPI PUSH2 0xF5F PUSH2 0xA80 JUMP JUMPDEST JUMPDEST PUSH2 0xF6A DUP3 SLOAD PUSH2 0xCCF JUMP JUMPDEST PUSH2 0xF75 DUP3 DUP3 DUP6 PUSH2 0xEB1 JUMP JUMPDEST PUSH1 0x0 PUSH1 0x20 SWAP1 POP PUSH1 0x1F DUP4 GT PUSH1 0x1 DUP2 EQ PUSH2 0xFA8 JUMPI PUSH1 0x0 DUP5 ISZERO PUSH2 0xF96 JUMPI DUP3 DUP8 ADD MLOAD SWAP1 POP JUMPDEST PUSH2 0xFA0 DUP6 DUP3 PUSH2 0xF22 JUMP JUMPDEST DUP7 SSTORE POP PUSH2 0x1008 JUMP JUMPDEST PUSH1 0x1F NOT DUP5 AND PUSH2 0xFB6 DUP7 PUSH2 0xD92 JUMP JUMPDEST PUSH1 0x0 JUMPDEST DUP3 DUP2 LT ISZERO PUSH2 0xFDE JUMPI DUP5 DUP10 ADD MLOAD DUP3 SSTORE PUSH1 0x1 DUP3 ADD SWAP2 POP PUSH1 0x20 DUP6 ADD SWAP5 POP PUSH1 0x20 DUP2 ADD SWAP1 POP PUSH2 0xFB9 JUMP JUMPDEST DUP7 DUP4 LT ISZERO PUSH2 0xFFB JUMPI DUP5 DUP10 ADD MLOAD PUSH2 0xFF7 PUSH1 0x1F DUP10 AND DUP3 PUSH2 0xF04 JUMP JUMPDEST DUP4 SSTORE POP JUMPDEST PUSH1 0x1 PUSH1 0x2 DUP9 MUL ADD DUP9 SSTORE POP POP POP JUMPDEST POP POP POP POP POP POP JUMP JUMPDEST PUSH1 0x0 PUSH1 0x60 DUP3 ADD SWAP1 POP DUP2 DUP2 SUB PUSH1 0x0 DUP4 ADD MSTORE PUSH2 0x102A DUP2 DUP7 PUSH2 0x9AF JUMP JUMPDEST SWAP1 POP PUSH2 0x1039 PUSH1 0x20 DUP4 ADD DUP6 PUSH2 0x9E8 JUMP JUMPDEST PUSH2 0x1046 PUSH1 0x40 DUP4 ADD DUP5 PUSH2 0x9F7 JUMP JUMPDEST SWAP5 SWAP4 POP POP POP POP JUMP INVALID LOG2 PUSH5 0x6970667358 0x22 SLT KECCAK256 PUSH24 0xCE9948AA2E3E9C891FD436AB148DCAF5060EEA442BA49F19 0xB1 PUSH9 0x1E70D8C17364736F6C PUSH4 0x43000818 STOP CALLER "},"methodIdentifiers":{"addVerifiedFile(address,string,string,bytes32)":"9c598ca6","admin()":"f851a440","getFiles(address)":"433bf37b","userFiles(address,uint256)":"718f38a6"}}}}}